:103000000000022089EC0100B5EC0100B5EC0100E4
:10301000B5EC0100B5EC0100B5EC0100553600003F
:1030200055360000553600005536000071C40100C9
:10303000B5EC01005536000031C6010081C6010023
:10304000EDA70100B5EC010049910100B5EC0100CC
:10305000B5EC0100B5EC0100B5EC0100B5EC0100E8
:10306000B5EC0100B5EC0100B5EC0100457C0100B8
:10307000B5EC0100B5EC0100B5EC0100B5EC0100C8
:10308000B5EC0100B5EC0100B5EC0100B5EC0100B8
:10309000E5950100FD95010021960100399601009A
:1030A000B5EC01005D9601006D910100B5EC0100E9
:1030B000B5EC0100B5EC0100598D0100B5EC010043
:1030C000B5EC0100B5EC0100B5EC0100B5EC010078
:1030D000B5EC0100B5EC0100B5EC010010B5054CF4
:1030E000237833B9044B13B10448AFF300800123B4
:1030F000237010BD000A0020000000001C25020003
:1031000008B5064B1BB106480649AFF300800648D8
:10311000036813B1054B03B1984708BD00000000D8
:103120001C250200040A00204009002000000000C5
:10313000154B002B08BF134B9D46A3F5803A002189
:103140008B460F461348144A121A1CF0E1FA0F4B33
:10315000002B00D098470E4B002B00D09847002042
:10316000002104000D000D48002802D00C48AFF3E8
:1031700000801CF087FA2000290000F043FD1CF0BD
:103180006DFA00BF000008000000022000000000EF
:1031900000000000000A00207C6D012000000000FB
:1031A0000000000080B582B000AF0C4B1B687B6054
:1031B0003B46184618F076FC7B681B0E0F2B0AD98D
:1031C0003B78032B07D1064B054A126822F05002C8
:1031D00042F010021A600837BD4680BDFC81E00F46
:1031E000C0800C4080B500AFFFF7DCFF13F07EFD20
:1031F00013F0CCFD14F054FF15F062FD14F0ACFE9A
:1032000013F08CFD14F08CFC16F072FA13F00CFD28
:1032100000F02EFE15F02EFE15F0B4FE16F018F894
:1032200016F072F815F082FA15F01CFF14F096FFF4
:103230004FF4E13016F0C8F84FF4E13016F002F91F
:103240004FF4165016F046F900F0ECF95A2000F051
:1032500081FE0248024912F087FB80BD88F8010018
:1032600090F8010080B500AF0EF028FB0EF0DAFBFD
:103270000EF0BCFC00F050F812F018F90EF0A0FAB5
:1032800012F01CF80EF008FD00F04EF8154815F08D
:1032900055FD154816F060F9144816F079F91448F0
:1032A00016F092F9134816F065F9134816F07EF9F6
:1032B000124814F0B9FC124815F020FF114B5B8B3B
:1032C0009BB2DBB21846402100F0FAFD16F038FA46
:1032D0000D480E4912F048FB0D480E4912F044FB10
:1032E00080BD00BF01650100E1580100DD5701000C
:1032F000A1580100515901005D5801001956010003
:10330000F9540100C0A40020DCF80100E4F8010039
:1033100030F9010038F9010080B500AF01480DF027
:10332000D1FF80BD0098002080B582B000AF18F0BA
:1033300035FB03463B6018F009FB3B78C3F3000301
:10334000DBB2012B04D101201E491F4A0FF006FBFE
:103350003B78C3F3C003DBB2012B04D1052019492C
:103360001A4A0FF0FBFA3B78C3F38013DBB2012B50
:1033700004D10A201349164A0FF0F0FA3B78C3F340
:103380000013DBB2012B1AD1124B01221A70052057
:103390000C49114A0FF0E2FA00237B6006E00F4867
:1033A0000F4912F0E1FA7B6801337B607B68092BDF
:1033B000F5D900F031F914F0F3FB14F009FC0837EB
:1033C000BD4680BD88F901008CF90100A0F901001B
:1033D000BCF9010014990020D4F9010088F801001B
:1033E000F0F9010080B500AF064B1B78012B08D126
:1033F000044B00221A7004480121012200230FF01F
:10340000F5FC80BD14990020249D002080B582B079
:1034100000AF494B5968494BA3FB01239A08134657
:103420009B001344CA1A002A01D000237FE0424BBC
:103430005A68434BD3F8C4309A4201D1002376E056
:103440003D4B5A683E4BC3F8C4201AF0F7F90023ED
:10345000FB7137E0FA793B491346DB0013445B000C
:1034600013440B4401331B78002B00D127E0FA7979
:1034700033491346DB0013449B0013440B44383399
:10348000D3F80130002B06D1FB792F482F491A467B
:103490002F4B12F015FBFA7929491346DB00134430
:1034A0009B0013440B443833D3F80130012B06D171
:1034B000FB79254825491A46264B12F001FBFB797A
:1034C0000133FB71FB79022BC4D92348234912F045
:1034D000F7FA234B5B79002B03D12248224912F0E3
:1034E000EFFA1F4B5B79002B03D01E481F4912F0E7
:1034F000E7FA134BDB691E481E491A4612F0E0FA40
:103500001D480EF043F9034619481C491A4612F0AB
:10351000D7FA134B93F86231154819491A4612F03D
:10352000CFFA184812F0CCFA1AF0D0F90123184655
:103530000837BD4680BD00BF586C0120CDCCCCCC37
:1035400014990020A498002024FA01002CFA01000C
:1035500044FA010068FA01008CFA010090FA0100B7
:103560000CA60020B8FA0100BCFA0100C8FA01005C
:10357000D4FA0100D8FA0100F498002000FB010001
:1035800028FB010050FB010080B500AF134B5B88A6
:103590009BB2002B01D100231EE0114B5B680F4A48
:1035A000928892B2B3FBF2F102FB01F29B1A002B5C
:1035B00001D0002310E00A4B5A680A4BD3F8C03000
:1035C0009A4201D1002307E0054B5A68054BC3F826
:1035D000C02014F019FB0123184680BDC0A40020B0
:1035E000586C01201499002080B500AF094BDB799D
:1035F00083F00103DAB2074BDA71064BDB79002B5B
:1036000001D115F0B3FC034BDB79012B01D115F08F
:10361000A1FC80BD1499002080B500AF15F09AFC84
:1036200080BD00BF80B500AF14F0DAFA0346002B6E
:1036300009D00548054912F043FA14F0FDFE02488E
:10364000034912F03DFA80BD54FB01005CFB010010
:1036500094FB010080B400AFBD465DF8047B704769
:1036600080B483B000AF78600B46FB70FA787B685B
:103670005A600C37BD465DF8047B704780B584B056
:1036800000AF786000201AF045FDF86016F052F89F
:1036900012F03CF912F0B8F8FFF7B8FE02F0CAFBDE
:1036A000FFF772FF02F05AFB00201AF033FDF860BA
:1036B000FB68642B08D8FB689B00044804491A4641
:1036C000044B12F0FDF9E1E7E0E700BFE0FB010089
:1036D000E8FB01000CFC010080B58CB004AF786001
:1036E00000201AF017FDB86113F0ECFA0346FB75E1
:1036F00016F020F815F01CFD4FF4FA7019F006FFD3
:1037000007F10803924A009202220192002001214F
:10371000002217F0D7F88F480421FFF7A1FF00BF60
:103720008C4B9B6803F00203002BF9D1FB7D002B2F
:1037300018D00023FB7712E0F97FFB7F9B0007F195
:103740002002134453F8182CFB7D9A408B0007F19C
:1037500020010B4443F8182CFB7F0133FB77FB7FE0
:10376000022BE9D9BB6818461BF0CCFC02460B467D
:103770001046194674A3D3E900231BF039FD024615
:103780000B46104619461BF045FF03469AB2724B92
:103790001A84FB6818461BF0B5FC02460B4610461F
:1037A000194669A3D3E900231BF022FD02460B460C
:1037B000104619461BF02EFF03469AB2664B5A84F8
:1037C0003B6918461BF09EFC02460B461046194604
:1037D0005DA3D3E900231BF00BFD02460B46104608
:1037E00019461BF017FF03469AB25B4B9A845A4B5B
:1037F0001B8C9AB2594B1B899BB2594811461A46E9
:103800000CF086F9544B5B8C9AB2544B5B899BB29B
:10381000544811461A460CF07BF9534BB3F850311B
:103820009AB24E4BDB889BB29A420AD84E4BDB8849
:103830009BB2002B05D14D480121012200230FF03E
:10384000D5FA494BB3F850319AB2444BDB889BB25E
:103850009A420AD9444BDB889BB2012B05D14348DD
:103860000021012200230FF0C1FA3F4BB3F8503181
:103870009AB23D4BB3F84A319BB29A420FD93A4BB8
:103880005B899BB2002B0AD1394801210122002318
:103890000FF0ACFA01203749374A0FF05FF8324B8E
:1038A000B3F850319AB2304BB3F84A319BB29A42D6
:1038B0000FD22D4B5B899BB2012B0AD12C480021E2
:1038C000012200230FF092FA01202A492B4A0FF01F
:1038D00045F8214B5B8C9BB20B2B07D81E4B1B8CE6
:1038E0009BB2102B02D915F017FC01E015F020FC5B
:1038F000194B9B8C9BB2184A528C92B21146164AB5
:10390000128C92B200911E49019102921D481E49EB
:103910001A461E4B12F0D4F84CF2503019F0F6FD56
:1039200000201AF0F7FBB861BB69642B08D8BB69AB
:103930009B00174817491A46174B12F0C1F8D7E6F3
:10394000D6E600BFAFF30080000000000065134022
:10395000282000400020004014990020C0A400202E
:103960006C9E0020729E0020249D0020289D002037
:103970002C9D002018FC01001CFC010044FC0100EF
:10398000A0FC01006CFC010078FC010090FC01002F
:10399000E0FB0100B0FC01000CFC0100AFF3008073
:1039A00080B584B000AF786000201AF0B3FBF860F7
:1039B00015F0C0FE114B1B695A1C104B1A611048C0
:1039C00005F098F80F4805F095F80F480C4904F0F9
:1039D000DDFF0E480B4904F0D9FF00201AF09AFBD6
:1039E000F860FB68642B08D8FB689B00084809490D
:1039F0001A46094B12F064F8DAE7D9E71499002067
:103A000000A50020189C0020E0A4002004990020BC
:103A1000E0FB0100D8FC01000CFC010080B584B083
:103A200000AF786000201AF075FBF86015F082FE98
:103A30000B480CF06DFB0B4809490CF055FA0020BF
:103A40001AF068FBF860FB68642B08D8FB689B00E1
:103A5000054806491A46064B12F032F8E6E7E5E754
:103A60000CA60020F4980020E0FB0100D8FC010027
:103A70000CFC010080B584B000AF786000201AF023
:103A800049FBF860002019F073FD4FF47A7019F0CB
:103A90003DFD02F0C9FA00201AF03CFBF860FB681B
:103AA000642B08D8FB689B00034804491A46044B62
:103AB00012F006F8E6E7E5E7E0FB010000FD010093
:103AC0000CFC010080B584B000AF786000201AF0D3
:103AD00021FBF86015F02EFE0FF04AFAFFF782FC8A
:103AE00002F050FB0B480BF045FF0A480A490DF065
:103AF000DDFA00201AF00EFBF860FB68642B08D892
:103B0000FB689B00054806491A46064B11F0D8FF92
:103B1000E0E7DFE70CA60020809B0020E0FB01002F
:103B200024FD01000CFC010080B584B000AF78607A
:103B300000201AF0EFFAF86015F0FCFD09480BF0D0
:103B4000C9FD00201AF0E6FAF860FB68642B08D87B
:103B5000FB689B00044805491A46054B11F0B0FF6D
:103B6000EAE7E9E70CA60020E0FB01004CFD0100BC
:103B70000CFC010080B584B000AF786000201AF022
:103B8000C9FAF86015F0D6FD09480BF055FD002084
:103B90001AF0C0FAF860FB68642B08D8FB689B0039
:103BA000044805491A46054B11F08AFFEAE7E9E7A0
:103BB0000CA60020E0FB010078FD01000CFC0100D8
:103BC00080B483B000AF78600C37BD465DF8047BED
:103BD000704700BF80B582B000AF7860396006489A
:103BE00006493A68064B11F06BFFFA2019F08EFC7B
:103BF0000837BD4680BD00BFA4FD0100A8FD01003F
:103C0000B8FD010080B582B002AFFFF7EBFAFFF715
:103C100029FB01230093002301932B482B494FF4E8
:103C2000C872002319F042FB012300930023019383
:103C3000274828494FF49672002319F037FB0123D7
:103C40000093002301932448244940F2DE320023EC
:103C500019F02CFB012300930023019320482149F4
:103C600040F2DE32002319F021FB012300931E4BAA
:103C700001931E481E494FF42F72002319F016FBC2
:103C8000012300931B4B01931B481C494FF41672F0
:103C9000002319F00BFB01230093194B01931948E2
:103CA00019494FF46172002319F000FB01230093BE
:103CB000164B0193164817494FF46172002319F00F
:103CC000F5FA19F071FDFEE77D36000020FF0100D6
:103CD000D936000028FF0100A139000030FF0100A3
:103CE0001D3A000038FF0100200A0020753A00004C
:103CF00040FF0100280A0020C53A000048FF0100EB
:103D0000240A0020293B000050FF01001C0A00206B
:103D1000753B000058FF010080B485B000AF7860AB
:103D200039607B6803F10473DA003B6813449B003D
:103D3000FB60FB681B6818461437BD465DF8047BC2
:103D4000704700BF80B582B000AF03463960FB7199
:103D5000FB79002B0DD0FB79012B0AD0FB79022BCC
:103D600007D0FB79032B04D0FB79042B01D0FB791E
:103D7000052BFA791346DB0013449B001C3303F137
:103D8000804303F5C04318463968FFF7C5FF034673
:103D900018460837BD4680BD80B483B000AF0346E7
:103DA0003960FB71FB79002B0DD0FB79012B0AD018
:103DB000FB79022B07D0FB79032B04D0FB79042B72
:103DC00001D0FB79052B0948FA793B68012101FAFA
:103DD00003F319461346DB0013449B0003441033DE
:103DE00059600C37BD465DF8047B704700600040A9
:103DF00080B483B000AF03463960FB71FB79002BC0
:103E00000DD0FB79012B0AD0FB79022B07D0FB796F
:103E1000032B04D0FB79042B01D0FB79052B094837
:103E2000FA793B68012101FA03F319461346DB00D6
:103E300013449B000344103319600C37BD465DF8F2
:103E4000047B70470060004080B582B000AF00F096
:103E5000DFFA00237B6002E07B6801337B607A68D5
:103E60004FF6FE739A42F7D90837BD4680BD00BFB2
:103E700080B582B000AF00F02BFAFFF7E5FF0CE051
:103E800000237B6002E07B6801337B607A6842F24A
:103E90000F739A42F7D9FFF7D7FF084B1B681B68CF
:103EA000184600F0D5FA0346002BE9D10020002186
:103EB000002200F071FB0837BD4680BD2C030020B6
:103EC00080B584B002AF02460B46FA71BB71022086
:103ED00000F0F0FB00200021002200F05DFBBB7928
:103EE0009BB2FA790121009108210191104600212D
:103EF0001A46082300F024FB0837BD4680BD00BFEA
:103F000080B582B000AF396013460246FA71BB71CA
:103F1000002001210422022300F080FB032000F096
:103F2000B5FB012000F0C6FB00200021002200F0BC
:103F300033FBBB791846396800F0DCFBBB799BB2D8
:103F4000FA79104630211A4600F0D2FA0837BD46F9
:103F500080BD00BF80B582B000AF0346FB71FB7926
:103F600010200121002200F059FB0837BD4680BD1A
:103F700080B584B000AF02460B46FA71BB7138239E
:103F8000FB73FB79012B04D1FB7B43F00203DBB213
:103F900003E0FB7B23F00203DBB2FB73BB79012B55
:103FA00004D1FB7B43F00103DBB203E0FB7B23F096
:103FB0000103DBB2FB73FB7B01200121012200F036
:103FC0002DFB1037BD4680BD80B586B004AF0346DB
:103FD000FB80FB881B0A9BB2DBB2FA88D2B200924C
:103FE000002201920022029211200421012200F0FD
:103FF00015FB0837BD4680BD80B584B000AF0346D1
:104000003960FB710023FB7342F21073BB811BE02C
:1040100000F0E6F8442000F0FDF800F007F9034650
:10402000FB73FB7BFF2B0AD1FB79002B04D0FB79C0
:104030001846396800F010F900F0DAF807E000F0EF
:10404000D7F8BB89013BBB81BB89002BE0D1BB8981
:10405000002B00D1FEE7FB7BFF2B02D1034B01229B
:104060001A70FB7B18461037BD4680BD2C0A002015
:1040700080B582B000AF03463960FB71FB79012B3C
:1040800003D1FB790133FB7102E001E000F06AF833
:10409000094B1B78002BF9D000F0A2F8FB791846E9
:1040A000396800F0CBF800F0A3F8034B00221A7037
:1040B0000837BD4680BD00BF2C0A002080B582B005
:1040C00000AF3B600346FB710B46BB7113467B712F
:1040D000BB79002B06D001E000F044F80B4B1B78B5
:1040E000002BF9D000F07CF8FB79184600F092F82C
:1040F0007B791846396800F0AFF800F079F8034B87
:1041000000221A700837BD4680BD00BF2C0A00206F
:1041100080B582B000AF3B600346FB710B46BB71BC
:1041200013467B71BB79002B06D001E000F01AF832
:104130000B4B1B78002BF9D000F052F8FB79184696
:1041400000F068F87B791846396800F077F800F0DD
:104150004FF8034B00221A700837BD4680BD00BFE0
:104160002C0A002080B500AF00200021FFF744FF9B
:104170000346184680BD00BF80B400AF034B002249
:104180001A70BD465DF8047B704700BF2C0A002002
:1041900080B584B000AFB9607B600346FB73134603
:1041A000BB73FB7B1846B968FFF762FFBB7B184601
:1041B0007968FFF721FF034618461037BD4680BDDA
:1041C00080B500AF01200121FFF712FE80BD00BFC6
:1041D00080B500AF01200121FFF7DEFD80BD00BFEB
:1041E00080B500AF01200621FFF7D6FD80BD00BFDE
:1041F00080B500AF01200621FFF7FAFD80BD00BFAA
:1042000080B500AF02200121FFF79CFD0346DBB221
:10421000184680BD80B582B000AF0346FB71FB79C4
:10422000184600F0ADF80837BD4680BD80B500AF38
:10423000002000F0A5F80346184680BD80B582B086
:1042400000AF03463960FB71FB791846396800F00E
:10425000B1F80837BD4680BD80B582B000AF0346D7
:104260003960FB71FB791846396800F0B9F80837F6
:10427000BD4680BD80B483B000AF0346FB71084BE0
:1042800097F907205209F97901F01F01012000FA7E
:1042900001F143F822100C37BD465DF8047B7047EE
:1042A00000E100E080B584B002AF39600146F971E9
:1042B000BA717B71FA79BB7979790091397C019176
:1042C000104639683A6816F0B5FC0837BD4680BD1F
:1042D000B0B588B002AF2648012115F0FBFD254B93
:1042E0003C461D460FCD0FC495E8030084E803004B
:1042F000214BBB600123BB733B462048194617F096
:10430000F7FD012003210422012316F0F9FC01200E
:1043100004210222002316F0F3FC012005210422CF
:10432000012316F0EDFC012006210422012316F0E2
:10433000E7FC012001210422002316F0E1FC022009
:1043400001210222012316F0DBFC0C4B40F20B1280
:104350005A65012300930220012100220123FFF767
:10436000A1FF0B20FFF786FF1837BD46B0BD00BF89
:104370000022040060FF010040420F0000C800401E
:1043800080B483B000AF0346FB71094BFA795A63DE
:1043900000BF074B1B6903F02003002BF9D0044B2F
:1043A000DB69DBB218460C37BD465DF8047B70470D
:1043B00000C8004080B582B000AF03463960FB7191
:1043C00006E03B685A1C3A601B781846FFF7D8FF96
:1043D000FB795A1EFA71002BF3D10837BD4680BD18
:1043E00090B583B000AF03463960FB7107E03C68CD
:1043F000631C3B60FF20FFF7C3FF03462370FB797C
:104400005A1EFA71002BF2D10C37BD4690BD00BF89
:1044100080B582B000AFFFF7D3FE40F6F613FB8005
:1044200002E0FB88013BFB80FB88002BF9D1FFF702
:10443000CFFE40F6F613FB8002E0FB88013BFB80D9
:10444000FB88002BF9D1FFF797FE0837BD4680BDEA
:1044500080B584B000AF78600023FB730023BB738A
:1044600039E07B685A1C7A601B78BB73BB7B102BCE
:1044700001D9042334E00023FB730AE0FB7B7A6854
:104480001178194AD1547B6801337B60FB7B01337F
:10449000FB73FA7BBB7B9A42F0D3BB7B1846124975
:1044A00000220023FFF774FE0346FF2B01D00223F6
:1044B00016E0FFF7A5FE0346002B0CD100200021DB
:1044C000002200F069F8094B9B7903F00803002BE8
:1044D00001D0042304E07B681B78002BC1D10023AA
:1044E00018461037BD4680BDF46C0120046D0120D4
:1044F00080B582B000AF13460246FA710A46BA711F
:10450000BB800E4B31221A700C4BFA795A700B4B50
:10451000BA799A70BB881B0A9BB2DAB2074BDA7081
:10452000BB88DAB2054B1A71044B00225A7106207F
:104530000249FFF79DFD0837BD4680BDF46C0120A0
:1045400080B582B000AFF871B971BA80FB70114BC1
:1045500032221A700F4BFA795A700E4BBA799A7050
:10456000BB881B0A9BB2DAB20A4BDA70BB88DAB29C
:10457000084B1A71074BFA785A71064B3A7C9A71BC
:10458000044B3A7DDA7108200249FFF771FD0837C4
:10459000BD4680BDF46C012080B582B000AF1346EB
:1045A0000246FA710A46BA717B711A4B20221A70C0
:1045B000184BFA795A70174BBA799A70154B7A7969
:1045C000DA70042013490822124BFFF7E1FD114B6A
:1045D0001A78114B1A700F4B5A780F4B5A700D4BBB
:1045E0009A780D4B9A700B4BDA780B4BDA70094BBB
:1045F0001A79094B1A71074B5A79074B5A71054BB7
:104600009A79054B9A71034BDA79034BDA710837C3
:10461000BD4680BDF46C0120046D01200CB480B552
:1046200084B000AF02460B46FA71BB71164B1122E3
:104630001A70154BFA795A70134BBA799A70124B5B
:104640003A7EDA7007F11C03BB600423FB730AE0B7
:10465000FA7BBB68191DB9601B68D9B20A4B995423
:10466000FB7B0133FB73BB795A1EBA71002BEFD170
:10467000FB7B18460449FFF7FBFC1037BD46BDE83D
:10468000804002B0704700BFF46C012080B582B05A
:1046900000AF0346FB71064B34221A70044BFA79C3
:1046A0005A7002200249FFF7E3FC0837BD4680BD7F
:1046B000F46C012080B582B000AF0346FB710B4B58
:1046C00015221A70094BFA795A7002200749022202
:1046D000064BFFF75DFD054B1A78054B1A70034B2F
:1046E0005A78034B5A700837BD4680BDF46C0120E0
:1046F000046D012080B582B000AF03463960FB71C4
:10470000FB79662000211A463B68FFF701FD083758
:10471000BD4680BD80B582B000AF03463960FB71F5
:10472000FB79772000211A463B68FFF7C7FC083762
:10473000BD4680BD80B582B000AF78607B685B7C91
:10474000013B1D2B00F2A88001A252F823F000BF0C
:10475000C9470000D1470000D9470000E1470000E9
:10476000E9470000F1470000F94700000148000058
:10477000994800000948000011480000194800004D
:1047800099480000214800002948000031480000F5
:104790003748000085480000434800003D480000BD
:1047A000494800005B480000614800004F48000095
:1047B000674800006D480000734800007948000019
:1047C0008B48000091480000786800F06DF864E0C4
:1047D000786800F02BF960E0786800F05FFA5CE040
:1047E000786800F07BFB58E0786800F021FD54E029
:1047F000786800F09BFE50E0786800F0D9FF4CE04C
:10480000786800F0EFFF48E0786800F0F5FF44E0DA
:10481000786800F043FA40E0786801F007F83CE07F
:10482000786801F053F838E0786802F09DFA34E0D7
:1048300002F0D0FA31E002F021FB2EE002F05AFC47
:104840002BE002F0AFFC28E003F0F8F825E07B68ED
:104850001B7D184603F02EF91FE003F02BFB1CE034
:1048600003F07EFB19E003F09FFC16E003F0F0FC80
:1048700013E003F029FE10E07B681B7D184603F06F
:1048800065FE0AE003F0D4FF07E004F043F804E01B
:10489000786804F067F800E000BF786801F0F6F986
:1048A0000837BD4680BD00BF80B584B002AF7860D8
:1048B0007B6893F80631002B1CD17B6893F8053197
:1048C0001A467B6893F8053119464F480B46DB00C2
:1048D0000B449B000B4403442833D3F80130591C8C
:1048E00049481346DB0013449B0013440344283318
:1048F000C3F801107B6893F80631012B1CD17B684B
:1049000093F805311A467B6893F8053119463E48FD
:104910000B46DB000B449B000B4403442833D3F8C5
:104920000130991C38481346DB0013449B001344A4
:1049300003442833C3F801107B6893F80631022B37
:104940001CD17B6893F805311A467B6893F80531D2
:1049500019462D480B46DB000B449B000B440344D7
:104960002833D3F80130191D27481346DB001344C0
:104970009B00134403442833C3F801107B6893F869
:1049800005317A6892F806210092204A0192204867
:1049900020491A46204B11F093F87B6893F80531B3
:1049A0001A4619491346DB0013449B0013440B4479
:1049B0002833D3F80130002B23D07B6893F80531DE
:1049C0001A4611491346DB0013449B0013440B4461
:1049D0002833D3F80110114BA1FB0323C81A400858
:1049E00003449A081346DB009B1ACA1A002A08D10E
:1049F0007B6893F805310A480A491A460A4B11F0B8
:104A00005FF80837BD4680BD149900209CFF010067
:104A100078FF010084FF010094FF010025499224E2
:104A2000BCFF0100C4FF0100D4FF010080B582B0CB
:104A300000AF78607B685B78103B082B01DC0023BB
:104A40001BE1904B5A68904BC3F8B0208F4BDB7A38
:104A5000002B03D18E48072111F0D0FC7B6893F81E
:104A6000053119467B6893F806311A4613465B00F8
:104A700013445B005A2202FB01F2134403F5A872AF
:104A8000844B1344191D7B689B8A9AB2824B9B8985
:104A90009BB2084611461A460BF03AF87B6893F829
:104AA000053119467B6893F806311A4613465B00B8
:104AB00013445B005A2202FB01F2134403F5B07267
:104AC000744B1344991D7B68DB8A9AB2724BDB8965
:104AD0009BB2084611461A460BF01AF87B6893F809
:104AE000053119467B6893F806311A4613465B0078
:104AF00013445B005A2202FB01F2134403F5B8721F
:104B0000644B134403F108017B681B8B9AB2624B20
:104B10001B8A9BB2084611461A460AF0F9FF7B68C9
:104B200093F8053119467B6893F806311A46134607
:104B30005B0013445B005A2202FB01F2134403F5AD
:104B4000C072544B134403F10A017B685B8B9AB229
:104B5000514B5B8A9BB2084611461A460AF0D8FFB1
:104B60007B6893F805311A467B6893F8063119463D
:104B700045481346DB0013449B00134403440B4495
:104B80003F331A787B681B7F9A420CD07B6893F87E
:104B900005117B6893F806217B681B7F0846114648
:104BA0001A4600F077FF786802F0F0FF7B6893F810
:104BB0000631002B1CD17B6893F805311A467B68BF
:104BC00093F80531194630480B46DB000B449B0037
:104BD0000B4403443E331B780133D9B22A481346B1
:104BE000DB0013449B00134403443E330A461A700F
:104BF0007B6893F80631012B1CD17B6893F8053153
:104C00001A467B6893F8053119461F480B46DB00AE
:104C10000B449B000B4403443E331B780233D9B250
:104C200019481346DB0013449B00134403443E33EE
:104C30000A461A707B6893F80631022B1CD17B68F8
:104C400093F805311A467B6893F8053119460E48EA
:104C50000B46DB000B449B000B4403443E331B78A4
:104C60000433D9B208481346DB0013449B001344B5
:104C700003443E330A461A70012318460837BD46DE
:104C800080BD00BF586C01201499002000980020BE
:104C900005980020249D0020C0A4002090B587B076
:104CA00004AF78608A4B59687B6893F805311A46DF
:104CB0007B6893F806311C4686481346DB00134494
:104CC000234438339B0003445B68CB1A042B01D880
:104CD0000023F8E07B6893F805311A467B6893F867
:104CE00006311C467A4B59687A481346DB00134458
:104CF000234438339B00034459607B685B7C032B5F
:104D000010D17B685B78103B082B01DC0023DAE0D4
:104D10007B6803F114027B6814331046194607229E
:104D200011F01AFB7B685B7C0B2B10D17B685B78E6
:104D3000103B002B01DC0023C5E07B681A7D7B68FB
:104D40001A777B6814331846072111F057FB7B68EC
:104D50001B7FC3F38013DBB2012B1DD17B6893F85B
:104D600005311A467B6893F80631194613465B00F5
:104D70001344DB000B4410339A00574BD1187B6867
:104D80001B7FC3F3C013DBB21A467B68143308469B
:104D9000114601220EF02AF87B681B7FC3F34013F3
:104DA000DBB2012B1ED17B6893F805311A467B6874
:104DB00093F80631194613465B001344DB000B449D
:104DC00012339A00444B1344191D7B681B7FC3F3B5
:104DD000C013DBB21A467B68143308461146012221
:104DE0000EF004F87B681B7FC3F38003DBB2012B5A
:104DF0001DD17B6893F805311A467B6893F806311C
:104E0000194613465B001344DB000B440A339A0037
:104E1000314BD1187B681B7FC3F3C013DBB21A463A
:104E20007B6814330846114601220DF0DFFF7B68D2
:104E30001B7FC3F34003DBB2012B1DD17B6893F8CA
:104E400005311A467B6893F80631194613465B0014
:104E50001344DB000B4416339A001F4BD1187B68B8
:104E60001B7FC3F3C013DBB21A467B6814330846BA
:104E7000114601220DF0BAFF7B6893F80A217B6886
:104E800005330121009101210191002102910021AE
:104E90000391104619460022032303F0F3FE7B68BA
:104EA00093F80A217B6805330121009101210191CA
:104EB000002102910021039110461946002203238C
:104EC00003F0E0FE012318460C37BD4690BD00BF3D
:104ED000586C012014990020249D002080B590B0CA
:104EE00004AF78607B685B7803F00303002B01D08C
:104EF000002395E17B68DA7C844BDB7A9A4201D00F
:104F000000238DE17B68DA7C804B1B7B9A4205D0C5
:104F10007B685B78782B01D0002381E1002387F840
:104F20002F304EE07B6893F806311A467B68DB7CB5
:104F3000013B1A2101FB03F3194697F82F300B446C
:104F40004FF4246101FB02F2134403F5A5635A00F8
:104F50006E4B13449A1C97F82F309B0010337968DE
:104F60000B4404331046194602221AF0C8FB7B6832
:104F700093F806311A467B68DB7C013B1A2101FB62
:104F800003F3194697F82F300B444FF4246101FBCB
:104F900002F2134408335A005C4B13449A1C97F8EE
:104FA0002F309B000233103379680B4404331046D2
:104FB000194602221AF0A3FB97F82F30013387F825
:104FC0002F3097F82F207B685B78103B002B00DA9E
:104FD00003339B109A42A5DB4D4B1B6818460021FA
:104FE0000222002319F05AFA7B68DA7C7B689B7CEA
:104FF0009A4240F014817B6893F80631022B40F00E
:105000000E810023BB6259E0404ABB6A03F5A563E9
:105010005B001344B3F902309BB29AB23B49BB6ABE
:1050200003F668735B000B44B3F902309BB29BB28A
:1050300013449AB23549BB6A03F5CD5308335B007C
:105040000B44B3F902309BB29BB213449BB29AB2A9
:105050002E49BB6A03F50F5328335B000B445A807B
:105060002A4ABB6A08335B001344B3F902309BB28F
:105070009AB22649BB6A03F648235B000B44B3F996
:1050800002309BB29BB213449AB22049BB6A03F52B
:10509000A45308335B000B44B3F902309BB29BB2BC
:1050A00013449BB29AB21949BB6A03F5F65308330D
:1050B0005B000B445A80BB6A0133BB62134BD3F8CD
:1050C0000D20BB6A9A429FD8104B9B7A012B0DD1C1
:1050D00001230093012301930E4B029301230393B9
:1050E00000200D494022082303F0CCFD0EF032FAD7
:1050F00001F07CFA07F10803184600211A221AF081
:1051000007FB18F09BFB00237B6274E0441A01202C
:10511000200A00204C1A0120EA98002014F00AFB13
:105120007B6A0133BB600023FB603F4A7B6A083324
:105130005B001344B3F902309BB29BB23B823A4A04
:105140007B6A03F648235B001344B3F902309BB239
:105150009BB27B82344A7B6A03F5A45308335B001D
:105160001344B3F902309BB29BB2BB822E4A7B6AD6
:1051700003F5A5635B001344B3F902309BB29BB205
:105180003B83294A7B6A03F668735B001344B3F9D7
:1051900002309BB29BB27B83234A7B6A03F5CD53DB
:1051A00008335B001344B3F902309BB29BB2BB835C
:1051B0001D4A7B6A03F5F65308335B001344B3F9C9
:1051C00002309BB29BB2FB82174A7B6A03F50F53F6
:1051D00028335B001344B3F902309BB29BB2FB83CC
:1051E00000233B8407F1080318461A210EF098F9B2
:1051F0007B6A01337B620C4BD3F80D207B6A9A42A9
:105200008CD818F063FB0848002145F211221AF0EF
:105210007FFA06480121012200230DF0E7FD01235A
:1052200018463037BD4680BD441A0120389D002005
:1052300090B59BB004AF78607B681B79C3F3801393
:10524000DBB2012B74D17B681B79C3F30303DBB2A0
:10525000012B2ED17B685B785D2B01D000234FE1C1
:10526000002013F0FBF87B681433002019464D2210
:105270000FF0A6FD7B6893F80A217B6805330121B6
:10528000009101210191002102910021039110461A
:1052900019460022062303F0F5FC0A209A499B4A8E
:1052A0000DF05CFB4FF47A7018F030F9984B994A86
:1052B000DA607B681B79C3F30303DBB2022B37D1BF
:1052C00007F10803002019464D22002312F0D4FFF5
:1052D0007B7AFF2B09D07B6803F1140207F10803E6
:1052E000104619464D221AF00AFA7B7AFF2B06D196
:1052F0007B681433184688494D221AF000FA7B68FF
:1053000093F80A217B6805337968143101200090F5
:105310000120019002914D2103911046194600226F
:10532000062303F0AFFC0A2077497C4A0DF016FBF8
:105330007B681B79C3F38013DBB2002B40F0DF8066
:105340007B6814337648194619221AF0D8F90823D5
:1053500087F8573097F85730724819460BF00AFA19
:10536000034687F8563097F8573097F856106D4A2D
:1053700040F20B1000FB01F140F66F2000FB03F33D
:105380000B44134403F5B673D3221A7097F85730C1
:1053900097F85610634A40F20B1000FB01F140F6FB
:1053A0006F2000FB03F30B44134403F26F136622D8
:1053B0001A7097F8573097F856105A4A40F20B1067
:1053C00000FB01F140F66F2000FB03F30B44134494
:1053D00003F5B87301221A7097F8573097F85610F2
:1053E000504A40F20B1000FB01F140F66F2000FB29
:1053F00003F30B44134403F5B073002242F0070299
:105400005A7400229A7497F8573097F85600454A14
:10541000928E92B2434940F20B1404FB00F040F626
:105420006F2404FB03F303440B4403F5B073A3F8A8
:1054300015203C4B93F83430072B2BD897F8573076
:1054400097F8562040F20B1101FB02F240F66F2153
:1054500001FB03F3134403F5B472324B134403F11D
:105460000F02304B93F83430013B5B0003F118011D
:105470002C4B0B4403331046194602221AF03FF915
:1054800097F8572097F856300221009125480121BE
:105490000BF096F9234B93F83430072B2AD997F861
:1054A000573097F8562040F20B1101FB02F240F6FC
:1054B0006F2101FB03F3134403F5B472194B13443A
:1054C00003F10F02174B93F83430063303F1180140
:1054D000144B0B4403331046194601221AF00FF9FE
:1054E00097F8572097F85630012100910D48012177
:1054F0000BF066F90A2004490B4A0DF02FFA01233C
:1055000018465C37BD4690BDF0FF0100F4FF010076
:1055100000ED00E00400FA05A49800201800020045
:1055200027A600200CA600203C00020090B58DB0FC
:1055300004AF78607B68143307F1180210461946EF
:1055400002221AF0DCF87B68163307F114021046C9
:10555000194602221AF0D3F8BB8A012B18D1804BCE
:1055600000221A603B8B1A467E4B1A607E4B01224A
:105570001A710023FB6108E0FB694E331B031846D8
:105580001AF06AF9FB690133FB61FB69312BF3D92E
:10559000754B1B79002B01D10023DDE03B8B1A46B4
:1055A000704B1B689A4201D00023D5E03B8BBA8A2E
:1055B00000926E4A01926E486E491A466E4B10F088
:1055C0007FFA7B6803F114027B685B78143B10461A
:1055D000194610F071FC694810F072FABA8A3B8BD8
:1055E0009A4225D0BB8A013BE82202FB03F303F178
:1055F000041303F5604318461AF036F90346B3F175
:10560000FF3F15D17B685B781A46554B1B681344E6
:10561000A3F11402524B1A60B98A7B6803F1180295
:105620007B685B78143B084611461A460CF082FEF4
:10563000BA8A3B8B9A427DD10023FB6034E0FB6841
:10564000E82202FB03F303F1041303F56043184659
:105650001AF00AF90346B3F1FF3F22D107F1100215
:1056600007F10C031046194602221AF048F87B682D
:105670000533012200920122019207F110020292E9
:1056800002220392002019460022062303F0FAFAB0
:105690003B8A3B483B491A463B4B10F011FA00232A
:1056A0005AE0FB680133FB603B8B013B1A46FB6809
:1056B0009A42C4D83548364910F002FA7B6818334C
:1056C00007F110021046194602221AF018F83C8A17
:1056D000234B1B6818460CF087FE03469C4205D0FE
:1056E0002C482D4910F0ECF9002335E02B482C49CB
:1056F00010F0E6F91C4B00221A714FF49C20294946
:105700001AF0BAF87B6805337A68143201210091E7
:1057100001210191029204220392002019460022E5
:10572000062303F0AFFA4FF47A7017F0EFFE1E4B2A
:105730001E4ADA607B6805337A68143201210091D1
:1057400001210191029204220392002019460022B5
:10575000062303F097FA012318462437BD4690BD6F
:10576000300A0020340A002014990020840002002E
:1057700078FF01005C0002007C0002008C00020047
:105780009000020098000200B4000200BC00020079
:10579000C40002000001020008010200280102000A
:1057A00030010200FB05FA0500ED00E00400FA05F7
:1057B00080B582B000AF78607B685B78103B072BC8
:1057C00001DC002309E07B6893F805217B68143332
:1057D0001046194600F07AFD012318460837BD46E9
:1057E00080BD00BF80B582B000AF786012F0E8F9EC
:1057F0000837BD4680BD00BF80B586B004AF786075
:105800007B6893F80A217B6805330121009101210F
:1058100001910021029100210391104619460022B6
:105820000A2303F02FFA0837BD4680BD80B586B045
:1058300004AF78607B6805331C481946062219F0CE
:105840004FFF0346002B1ED17B6893F80A217B682B
:1058500005330121009101210191002102910021D4
:1058600003911046194600220C2303F00BFA012085
:105870000F49104A0DF072F84FF4FA7017F046FE17
:105880000D4B0E4ADA607B6893F805317A6892F81E
:10589000062100920A4A019205200A491A460A4B3B
:1058A0000DF05CF80837BD4680BD00BFE4980020CD
:1058B000F0FF01006801020000ED00E00400FA05BD
:1058C000940102008C01020094FF010090B585B0A4
:1058D00002AF78607B685B78103B002B01DC002313
:1058E000C3E07B681B7D012B1FD17B6893F80531DA
:1058F0001A4660491346DB0013449B0013440B44D3
:105900003833002242F001025A7000229A700022BD
:10591000DA7000221A717B6893F8053156481946EF
:10592000564A10F0CDF801239FE07B6893F80631CA
:10593000002B1CD17B6893F805311A467B6893F8DD
:10594000053119464B480B46DB000B449B000B44CA
:1059500003443033D3F80530591C46481346DB0066
:1059600013449B00134403443033C3F805107B6891
:1059700093F80631012B1CD17B6893F805311A4648
:105980007B6893F8053119463A480B46DB000B4417
:105990009B000B4403443033D3F80530991C354841
:1059A0001346DB0013449B00134403443033C3F815
:1059B00005107B6893F80631022B1CD17B6893F8A5
:1059C00005311A467B6893F80531194629480B467C
:1059D000DB000B449B000B4403443033D3F8053009
:1059E000191D24481346DB0013449B001344034451
:1059F0003033C3F805107B6893F805311A467B688D
:105A000093F805311C461E4B59681A481346DB00B3
:105A10001344234434339B00034499607B681B7D0B
:105A2000012B0ED17B6893F805317A6892F8062134
:105A30000092144A01920A2013491A46134B0CF0A3
:105A40008DFF7B681B7D002B0ED17B6893F80531A1
:105A50007A6892F8062100920D4A01920A200A49BA
:105A60001A460A4B0CF07AFF012318460C37BD4644
:105A700090BD00BF14990020AC010200B4010200E7
:105A8000586C0120D40102008C01020094FF010037
:105A9000F401020080B584B000AF13460246FA71EB
:105AA0000A46BA717B717B79002B1FD1FA79B979DB
:105AB00070481346DB0013449B00134403440B441B
:105AC0003F3300221A70FA796A491346DB00134407
:105AD0009B0013440B442833002242F002025A7107
:105AE00000229A710022DA7100221A727B79012B4E
:105AF0000CD1FA79B9795F481346DB0013449B0057
:105B0000134403440B443F3301221A700023FB73F8
:105B1000A6E0FA7B58491346DB0013445B001344AC
:105B20000B4401331B78002B00D196E0FA7B5149DE
:105B30001346DB0013449B0013440B443833D3F863
:105B40000130002B3FD10023BB7339E0FA7BB97BD6
:105B500048481346DB0013449B00134403440B44A2
:105B60003F331B78002B03D1BB7B0133BB7327E092
:105B7000FA7B40491346DB0013449B0013440B445B
:105B80003833002242F001025A7000229A7000223B
:105B9000DA7000221A71FB7B06339A00374B1344EC
:105BA000043318460121012200230DF01FF9FB7B6D
:105BB0000A2033491A46334B0CF0D0FE012354E03F
:105BC000BB7B022BC2D9FA7B2A491346DB00134464
:105BD0009B0013440B443833D3F80130012B3CD1E4
:105BE00000237B7312E0FA7B797B22481346DB00AB
:105BF00013449B00134403440B443F331B78012B95
:105C000001D1012331E07B7B01337B737B7B022B52
:105C1000E9D9FA7B17491346DB0013449B00134470
:105C20000B44383300225A7000229A700022DA7036
:105C300000221A71FB7B06339A00104B1344043385
:105C400018460021012200230DF0D0F8FB7B0A202A
:105C50000B491A460C4B0CF081FEFB7B0133FB73A6
:105C6000FB7B022B7FF655AF012318461037BD464C
:105C700080BD00BF14990020A4980020249D00201E
:105C800014020200180202003C02020090B583B028
:105C900000AF78607B6893F80531FF2B04D07B68F8
:105CA00093F80631FF2B01D100234DE07B6893F878
:105CB00005311A467B6893F806311C46244B596817
:105CC00024481346DB001344234432339B0003442F
:105CD00059607B6893F805311A467B6893F8063162
:105CE00018461D4913465B001344DB0003440C3384
:105CF0009B000B44DB889BB2002B01D1002323E0E7
:105D00007B6893F805217B6893F8063110461946A5
:105D10000022FFF7BFFE7B6893F805311A467B68C7
:105D200093F80631194613465B001344DB000B441D
:105D30000C339A00084B1344043318460021012207
:105D400000230DF053F8012318460C37BD4690BDD3
:105D5000586C012014990020249D002090B583B038
:105D600000AF0023FB7155E0FA792D491346DB00A3
:105D700013445B0013440B4401331B78002B00D108
:105D800045E00023BB713FE0264B5968FA79BC79A6
:105D900025481346DB001344234432339B0003445D
:105DA0005B68CA1A214B9B8B9BB29A4200D228E0B7
:105DB000FA79B8791E4913465B001344DB000344AB
:105DC0000C339B000B44DB889BB2012B00D118E005
:105DD000FA79BB79104619460122FFF75BFEFA7982
:105DE000B97913465B001344DB000B440C339A0073
:105DF0000F4B1344043318460121012200230CF0F9
:105E0000F5FFBB790133BB71BB79022BBCD9FB79A0
:105E10000133FB71FB79022BA6D90C37BD4690BD2F
:105E2000A4980020586C012014990020C0A40020E0
:105E3000249D002090B585B002AF714B5B68D91EE0
:105E4000704BA3FB01239A0813469B001344CA1A04
:105E5000002A01D00023CFE0694B5A686A4BD3F87F
:105E6000B4309A4201D10023C6E0654B5A68664BB4
:105E7000C3F8B4200023FB71B9E0FA7963491346F3
:105E8000DB0013445B0013440B4401331B78002BED
:105E900000D1A9E0FA795C491346DB0013449B006A
:105EA00013440B442833D3F80130002B3AD0FA794D
:105EB00055491346DB0013449B0013440B4428331D
:105EC000D3F80110524BA1FB0323C81A4008034426
:105ED0009A081346DB009B1ACA1A002A22D1FA79C3
:105EE00049491346DB0013449B0013440B442833F9
:105EF00000225A7000229A700022DA7000221A7171
:105F0000FA7941491346DB0013449B0013440B44C8
:105F1000283300225A7100229A710022DA7100227D
:105F20001A7261E0FC79FA7937491346DB001344B1
:105F30009B0013440B442833D3F8013000933548B9
:105F400035492246354B0FF0BBFDFA792E491346F1
:105F5000DB0013449B0013440B44283300225A7087
:105F600000229A700022DA7000221A71FA79F97907
:105F700025480B46DB000B449B000B4403442833AD
:105F8000D3F80530591C20481346DB0013449B000E
:105F9000134403442833C3F80510FA791A49134609
:105FA000DB0013449B0013440B442833D3F8053023
:105FB000022B00D818E0FA7913491346DB0013448A
:105FC0009B0013440B443833D3F80130012B00D12C
:105FD0000AE0FB79184600F099FAFB790320104992
:105FE0001A46104B0CF0BAFCFB790133FB71FB79BC
:105FF000022B7FF642AF012318460C37BD4690BDF9
:10600000586C0120CDCCCCCC14990020A498002051
:106010002549922464020200700202007802020004
:10602000140202009C02020080B586B004AF002377
:106030007B60464B01229A70454846490FF040FD6F
:106040000023FB7069E0444B0122DA725CE000231C
:10605000BB7050E0404B1B7A1946FB781A46520041
:106060001A4453001A460B46DB000B445B000B44FA
:106070001A443A4B13440233374A117B364AD27AD8
:106080000091019200220292002203920020194600
:106090004222042302F0F6FD7B6801337B6001207D
:1060A00040F2E24118F0B2F90346012B00D125E09D
:1060B000BB78042B03D0BB780133BB701BE0234BB0
:1060C00000229A702448002145F2112219F020FB89
:1060D000214B1B7AF978204AD27A0091204901910C
:1060E0000292204A039203201F491A461F4B0CF0CC
:1060F00035FC002326E0BB78042BABD9164BDB7AAA
:106100000133DAB2144BDA72134BDA7A124B1B7B7F
:106110009A429CD9FB780133FB70FB78022B92D911
:106120000A4B00229A700C4B1B7A0C2010491A461D
:10613000104B0CF013FC104810497A68104B0FF00C
:10614000BFFC012318460837BD4680BD14990020C6
:1061500028010200C4020200441A0120A498002071
:10616000E8020200FC020200E002020094FF0100CB
:10617000140202000C030200BCFF01002403020011
:106180004003020080B582B000AF4D4B5B8B9BB2E9
:10619000002B44D10023FB713EE0FA7949491346B4
:1061A000DB0013445B0013440B4401331B78002BCA
:1061B00000D12EE00023BB7128E0FA79B87940497C
:1061C00013465B001344DB00034410339B000B4475
:1061D0005B889BB2012B0ED0FA79B8793849134607
:1061E0005B001344DB00034412339B000B44DB8849
:1061F0009BB2012B07D134480121012200230CF06E
:10620000F5FD012358E0BB790133BB71BB79022B4B
:10621000D3D9FB790133FB71FB79022BBDD9284B14
:106220005B8B9BB2012B46D100237B7138E07A79DE
:1062300024491346DB0013445B0013440B44013331
:106240001B78002B00D128E000233B7122E07A79F3
:1062500038791B4913465B001344DB0003441033B9
:106260009B000B445B889BB2012B0ED07A79387966
:10627000134913465B001344DB00034412339B00B5
:106280000B44DB889BB2012B01D1002314E03B7946
:1062900001333B713B79022BD9D97B7901337B7177
:1062A0007B79022BC3D908480021012200230CF07E
:1062B0009DFD012300E0012318460837BD4680BD3F
:1062C000249D0020A49800203C9D002080B58AB029
:1062D00004AF03463960FB71FA7953491346DB007A
:1062E00013449B0013440B443833D3F80130012B83
:1062F00008D1FB794D484E491A464E4B0FF0E0FB52
:1063000000238CE0484B9B78012B05D14A484B4930
:106310000FF0D6FB002382E0494BFA791A72424B08
:1063200001229A70474BDB8A9BB21B099BB2DBB2FE
:1063300023F00F03DAB2434BDB8A9BB2DBB2134488
:10634000DAB23F4B5A743E4B5B7CC3F30303DBB2C0
:106350001A463B4B5B7CC3F30313DBB2134452225C
:1063600002FB03F31A46364BC3F80D20344BD3F827
:106370000D309A00344BA3FB02135B09682101FB2B
:1063800003F3D31A002B0BD12D4BD3F80D309A0009
:106390002D4BA3FB02135B09DAB2294B1A730CE0F5
:1063A000274BD3F80D309A00274BA3FB02135B0950
:1063B000DBB20133DAB2224B1A7321483968082262
:1063C00019F09DF907F10C0318463968082219F0F5
:1063D00096F91B4B5B7C3B750123009301230193D2
:1063E00007F10C030293092303930020174940226D
:1063F000072302F047FCFB799BB2012039681A465B
:106400000CF0F0FF124B1B68184617F071F9FB797E
:10641000064810491A46104B0FF052FB012318464C
:106420001837BD4680BD00BF149900204C03020000
:106430007002020058030200800302008803020079
:10644000441A0120C0A400204FECC44EEA9800205A
:10645000200A002084FF0100BC03020080B500AFC9
:10646000214B68221A70204B18225A701E4B18229A
:106470009A701D4B6822DA701B4B41221A711B481F
:106480001B49062219F03BF91A481B49062219F04C
:1064900036F9154B01225A74134B01229A74124B90
:1064A0000122DA7400BF154B5A6847F6F8739A4216
:1064B000F9D8124B5B6803F58B72114B1A601148C7
:1064C0000F49082219F01BF90F48182102F0F2FABF
:1064D00003461A46044B1A77034B16225A77024892
:1064E0001E210FF041F980BD889F00208D9F002064
:1064F000DE980020939F0020EA98002000000840CA
:10650000586C01209C9F00208C9F002080B584B097
:1065100000AF0346FB712E485521272219F0F8F8E9
:106520002C4B2D2283F832212A4BD42283F833219D
:10653000284B682283F83421264B112283F8352119
:10654000244B112283F83621224B682283F837210D
:10655000204B402283F838211F482049062219F099
:10656000CEF81F481F49062219F0C9F8194B0A2214
:1065700083F84521174B012283F84621154B012250
:1065800083F84721134BFA7983F8482116481121E3
:1065900002F090FA03461A460E4B83F849210D4B40
:1065A000162283F84A2117F049F90023FB7306E00D
:1065B000074840210FF0F6F8FB7B0133FB73FB7BB0
:1065C000182BF5D917F082F91037BD4680BD00BFF2
:1065D00093A00020889F0020C1A00020DE9800200A
:1065E000C7A00020EA980020C0A0002080B5ACB071
:1065F00000AF0023A7F89830BD4BD3F8AC30C7F8F4
:10660000AC30BB4BD3F8AC309A1CB94BC3F8AC20C0
:1066100007F19C031846B749082219F070F807F1F2
:106620009C023B461046194607220FF095FEB04BE0
:10663000D3F8AC203B461046194607220EF0C0FBAB
:10664000AB4BD3F8AC30DA1DA94BC3F8AC203B46BA
:106650001846A94919F0C8F83B46184619F0CCF875
:10666000C7F8A800A24BD3F8AC203B461046194609
:10667000D7F8A8200EF0A4FB9D4BD3F8AC20D7F898
:10668000A8301A449A4BC3F8AC20B7F89820D7F832
:10669000A8309BB213449BB2A7F89830954B1B7A55
:1066A0003133DAB2934B1A72914BD3F8AC301846AF
:1066B000924901220EF084FB8D4BD3F8AC305A1C6A
:1066C0008B4BC3F8AC20B7F8983001339BB2A7F8D6
:1066D0009830884B1B7A313BDAB2864B1A723B46B4
:1066E0001846874919F080F83B46184619F084F897
:1066F000C7F8A8007E4BD3F8AC203B46104619469D
:10670000D7F8A8200EF05CFB794BD3F8AC20D7F873
:10671000A8301A44764BC3F8AC20B7F89820D7F8C5
:10672000A8309BB213449BB2A7F898303B4618465A
:10673000744919F059F83B46184619F05DF8C7F846
:10674000A8006B4BD3F8AC203B4610461946D7F84F
:10675000A8200EF035FB664BD3F8AC20D7F8A83054
:106760001A44634BC3F8AC20B7F89820D7F8A83088
:106770009BB213449BB2A7F898303B461846624937
:1067800019F032F83B46184619F036F8C7F8A80059
:10679000574BD3F8AC203B4610461946D7F8A820F3
:1067A0000EF00EFB524BD3F8AC20D7F8A8301A44A9
:1067B0004F4BC3F8AC20B7F89820D7F8A8309BB25D
:1067C00013449BB2A7F898303B4618464F4919F03E
:1067D0000BF83B46184619F00FF8C7F8A800444BD1
:1067E000D3F8AC203B4610461946D7F8A8200EF047
:1067F000E7FA3F4BD3F8AC20D7F8A8301A443C4B0B
:10680000C3F8AC20B7F89820D7F8A8309BB213444F
:106810009BB2A7F89830374BD3F80D203B46104673
:1068200019460A220EF06AFB034687F8A730304B60
:10683000D3F8AC1097F8A7303A461A4497F8A73027
:10684000C3F10A03084611461A460EF0B9FA284B5E
:10685000D3F8AC2097F8A730D31A03F10A02244BDF
:10686000C3F8AC20B7F8982097F8A7309BB2D31A9A
:106870009BB20A339BB2A7F898303B46184624498E
:1068800018F0B2FF3B46184618F0B6FFC7F8A8004C
:10689000174BD3F8AC203B4610461946D7F8A82032
:1068A0000EF08EFA124BD3F8AC20D7F8A8301A4469
:1068B0000F4BC3F8AC20B7F89820D7F8A8309BB29C
:1068C00013449BB2A7F8983007F19C031846094976
:1068D000082218F014FFD7F89C10064B5B7CC3F31A
:1068E0000313DBB21A4613469B0013445B0411E00A
:1068F00014990020441A0120840402004C1A01203B
:1069000098040200F404020058050200BC050200CD
:10691000E80502006E4A82FB03029211DB17D31ACC
:10692000994215D3D7F89C106A4B5B7CC3F30313D1
:10693000DBB21A4613469B0013445B04644A82FB95
:1069400003029211DB17D31ACB1AC7F89C301BE055
:10695000D7F8A030013BC7F8A030D7F89C105D4BAA
:106960005B7CC3F30313DBB21A4613469B0013444C
:106970005B04574A82FB03029211DB17D31ACB1A2E
:1069800003F50043C7F89C3007F19C023B461046D4
:10699000194600F0A7F80346C7F8A8304E4BD3F8C5
:1069A000AC203B4610461946D7F8A8200EF008FA4E
:1069B000494BD3F8AC20D7F8A8301A44464BC3F85B
:1069C000AC20B7F89820D7F8A8309BB213449BB2FC
:1069D000A7F898303B461846404918F005FF3B465B
:1069E000184618F009FFC7F8A8003B4BD3F8AC20B5
:1069F0003B4610461946D7F8A8200EF0E1F9364B71
:106A0000D3F8AC20D7F8A8301A44334BC3F8AC20E5
:106A1000B7F89820D7F8A8309BB213449BB2A7F8D8
:106A200098303B462B48194600F05CF80346C7F8FF
:106A3000A830294BD3F8AC203B4610461946D7F86E
:106A4000A8200EF0BDF9244BD3F8AC20D7F8A8301D
:106A50001A44214BC3F8AC20B7F89820D7F8A830D7
:106A60009BB213449BB2A7F898303B4618461C498A
:106A700018F0BAFE3B46184618F0BEFEC7F8A8004C
:106A8000154BD3F8AC203B4610461946D7F8A82042
:106A90000EF096F9104BD3F8AC20D7F8A8301A4472
:106AA0000D4BC3F8AC20B7F89820D7F8A8309BB2AC
:106AB00013449BB2A7F8983007F19803D7F8AC00BD
:106AC000194602220EF07CF9B037BD4680BD00BFEA
:106AD000D34D6210441A012014990020E8050200E9
:106AE000EC05020090B58BB000AF7860396007F11B
:106AF0001C0318467968082218F001FE07F11C02F1
:106B000007F114031046194607220FF025FC07F180
:106B100008035A1C07F1140310461946072218F0FF
:106B2000EEFD07F1100207F1080301331046194684
:106B3000022218F0E4FD7B7B03F01F03DBB27B73C2
:106B40003A8A874BA3FB02139B099BB2DBB2BB7251
:106B50003B8A834AA2FB031292094FF47A7101FB2C
:106B600002F29B1A9BB23B823A8A7E4BA3FB021332
:106B70005B099BB2DBB27B723B8A7A4AA2FB0312AF
:106B80005209642101FB02F29B1A9BB2DBB23B72F9
:106B9000002387F8273017E097F8274097F8273029
:106BA00007F12802134413F8203C184611F018FA94
:106BB00003461A4607F12803234403F8202C97F8CC
:106BC0002730013387F8273097F82730072BE3D990
:106BD0007B7B3B743B7CC3F30313DBB23033DAB211
:106BE0003B681A703B6801333A7CC2F30302D2B2AD
:106BF0003032D2B21A703B6802332F221A70BB7B3C
:106C00003B743B6803333A7CC2F30312D2B2303296
:106C1000D2B21A703B6804333A7CC2F30302D2B298
:106C20003032D2B21A703B6805332F221A70FB7BC8
:106C30003B743B68063332221A703B6807333022BC
:106C40001A703B6808333A7CC2F30312D2B2303276
:106C5000D2B21A703B6809333A7CC2F30302D2B253
:106C60003032D2B21A703B680A332C221A703B7B46
:106C70003B743B680B333A7CC2F30312D2B230321E
:106C8000D2B21A703B680C333A7CC2F30302D2B220
:106C90003032D2B21A703B680D333A221A70FB7A46
:106CA0003B743B680E333A7CC2F30312D2B23032EB
:106CB000D2B21A703B680F333A7CC2F30302D2B2ED
:106CC0003032D2B21A703B6810333A221A70BB7A53
:106CD0003B743B6811333A7CC2F30312D2B23032B8
:106CE000D2B21A703B6812333A7CC2F30302D2B2BA
:106CF0003032D2B21A703B6813332E221A707B7A6C
:106D00003B743B6814333A7CC2F30302D2B2303294
:106D1000D2B21A703B7A3B743B6815333A7CC2F3AB
:106D20000312D2B23032D2B21A703B6816333A7CB8
:106D3000C2F30302D2B23032D2B21A703B681733B8
:106D400030221A703B68183330221A703B681933AE
:106D500030221A701A2318462C37BD4690BD00BF4A
:106D6000D34D62101F85EB5180B584B000AF7860C1
:106D700016F064FD12F0F2FC104811490EF0A0FE6E
:106D800011F05AFB0AF01CFD0E480F490EF098FE58
:106D90000023FB6002E0FB680133FB60FA6844F605
:106DA0001F639A42F7D9094B094ADA6012F0C8FC0E
:106DB00016F08CFD1037BD4680BD00BF28010200D3
:106DC000FC050200800302002006020000ED00E046
:106DD0000400FA0580B582B000AF16F02FFD2348FD
:106DE00023490EF06DFE00237B6012E07B688B224E
:106DF00002FB03F303F52043184600F0F3F80346C3
:106E000083F00103DBB2002B00D007E07B68013385
:106E10007B607A6840F299439A42E7D91348154952
:106E20000EF04EFE00233B6012E03B688B2202FB1B
:106E300003F303F54833184600F0D4F8034683F013
:106E40000103DBB2002B00D007E03B6801333B605D
:106E50003A6840F299439A42E7D9044806490EF04D
:106E60002FFE16F033FD0837BD4680BD54060200E4
:106E70005C06020094060200C806020080B590B0CD
:106E800006AF16F0DBFC3B1D18460CF0EBFBD7F809
:106E90000930A3F52043B3F5203F09D2D7F80930D4
:106EA000A3F52042414BA3FB02139B0901337B62F4
:106EB000D7F80930A3F54833B3F5203F0AD2D7F805
:106EC0000930A3F52042394BA3FB02139B0903F2BF
:106ED0009B437B62364837490EF0F2FDB7F8153018
:106EE0009BB2B7F8072092B20092334A01923A1D42
:106EF00013320292314A03927A6A0492304A05921E
:106F0000304831491A46314B0EF0DAFD00233B621E
:106F10003BE0D7F80930184600F064F8034683F0E8
:106F20000103DBB2002B28D0D7F80930A3F52043AA
:106F3000B3F5203F09D2D7F80930A3F520421B4B07
:106F4000A3FB02139B0901337B62D7F80930A3F539
:106F50004833B3F5203F0AD2D7F80930A3F52042D1
:106F6000124BA3FB02139B0903F29B437B6218485D
:106F700018497A6A184B0EF0A3FDD7F809308B3305
:106F8000C7F809303B6A01333B62B7F815309BB252
:106F90001A463B6A9A42BCD8104811490EF090FD3F
:106FA00016F094FC2837BD4680BD00BF53D9DE756E
:106FB00080030200FC06020078070200840702003A
:106FC000A007020038070200480702006807020015
:106FD000A8070200B0070200CC0702005406020016
:106FE000F007020080B5ACB006AF78607B68A3F50F
:106FF0002043B3F5203F07D27B68C3F548338A2B83
:1070000002D84FF448337B607B68A3F54833B3F56F
:10701000203F07D27B68C3F5B4238A2B02D84FF4F4
:1070200020437B6007F10803786819468B22002310
:1070300011F022F93B7AFF2B01D1002344E07B6859
:10704000A3F52043B3F5203F09D27B68A3F5204286
:107050001F4BA3FB02139B090133C7F894307B68D5
:10706000A3F54833B3F5203F0AD27B68A3F5483235
:10707000174BA3FB02139B0903F29B43C7F8943001
:107080007B7A1A463B7A0092124A019207F1080273
:1070900002320292104A03920493104B0593104857
:1070A0001049D7F89420104B0EF00AFD3B7A083BAC
:1070B00007F108020932104619460EF0C7FE0B48C8
:1070C0000B490EF0FDFC012318469837BD4680BDE4
:1070D00053D9DE755008020058080200600802000B
:1070E000280802003408020040080200F0FF0100F6
:1070F000E805020080B582B000AF16F09FFB24487F
:1071000024490EF0DDFC00237B6014E07A6813460E
:107110005B0013449B00134403F5B423184600F0AE
:10712000F5F8034683F00103DBB2002B00D006E044
:107130007B6801337B607B68B3F59D7FE6D9164899
:1071400016490EF0BDFC00233B6014E03A6813467C
:107150005B0013449B00134403F5B623184600F06C
:10716000D5F8034683F00103DBB2002B00D006E024
:107170003B6801333B603B68B3F59D7FE6D9064829
:1071800007490EF09DFC16F0A1FB0837BD4680BDF7
:10719000800302006808020054060200A0080200F2
:1071A000D408020080B590B006AF16F047FB3B1D37
:1071B00018460CF01BFDD7F80930A3F5B423B3F53E
:1071C000805F09D2D7F80930A3F5B422414BA3FB65
:1071D00002139B0801337B62D7F80930A3F5B6236D
:1071E000B3F5805F0AD2D7F80930A3F5B422394B42
:1071F000A3FB02139B0803F59E737B623648374955
:107200000EF05EFCB7F815309BB2B7F8072092B2CB
:107210000092334A01923A1D13320292314A03928C
:107220007A6A0492304A0592304831491A46314B05
:107230000EF046FC00233B623BE0D7F809301846CD
:1072400000F064F8034683F00103DBB2002B28D082
:10725000D7F80930A3F5B423B3F5805F09D2D7F886
:107260000930A3F5B4221B4BA3FB02139B08013387
:107270007B62D7F80930A3F5B623B3F5805F0AD255
:10728000D7F80930A3F5B422124BA3FB02139B08D5
:1072900003F59E737B62184818497A6A184B0EF002
:1072A0000FFCD7F809300D33C7F809303B6A0133BA
:1072B0003B62B7F815309BB21A463B6A9A42BCD87B
:1072C000104811490EF0FCFB16F000FB2837BD46B4
:1072D00080BD00BF4FECC44E8003020008090200CD
:1072E000800902008C090200A8090200440902007A
:1072F0005009020070090200B4090200B007020040
:10730000BC09020054060200E009020090B58FB0EB
:1073100006AF786016F092FA7B68A3F5B423B3F554
:10732000805F07D27B68C3F5B6230C2B02D84FF4DD
:10733000B6237B607B68A3F5B623B3F5805F07D2E5
:107340007B68C3F5B8230C2B02D84FF4B4237B60C1
:107350007B68A3F5B423B3F5805F08D27B68A3F5FF
:10736000B422994BA3FB02139B080133FB617B689A
:10737000A3F5B623B3F5805F09D27B68A3F5B622E7
:10738000914BA3FB02139B0803F59E73FB6107F16E
:107390000803786819460D22002310F06DFF3B7A30
:1073A000FF2B01D1002324E3B7F809309AB2874BB1
:1073B0001B889BB29A421BD1B7F809309BB27A68FE
:1073C0000092834A0192029382488349FA69834B6F
:1073D0000EF076FB3B7A1A4607F10803043300925D
:1073E0007F4A01927F4880491A46804B0EF068FB25
:1073F000B7F809309AB2754B9B889BB29A421BD161
:10740000B7F809309BB27A680092714A01920293F0
:1074100070487149FA69714B0EF052FB3B7A1A467B
:1074200007F1080304330092714A01926D486E49D6
:107430001A466E4B0EF044FBB7F809309AB2634B14
:107440001B899BB29A421BD1B7F809309BB27A686C
:1074500000925F4A019202935E485F49FA695F4B6E
:107460000EF02EFB3B7A1A4607F108030433009214
:10747000604A01925B485C491A465C4B0EF020FB67
:10748000B7F809309AB2514B9B899BB29A421BD1F3
:10749000B7F809309BB27A6800924D4A0192029384
:1074A0004C484D49FA694D4B0EF00AFB3B7A1A469F
:1074B00007F10803043300924F4A019249484A49B0
:1074C0001A464A4B0EF0FCFAB7F809309AB23F4B15
:1074D0001B8A9BB29A421BD1B7F809309BB27A68DB
:1074E00000923B4A019202933A483B49FA693B4B6E
:1074F0000EF0E6FA3B7A1A4607F1080304330092CD
:107500003E4A0192374838491A46384B0EF0D8FAAD
:10751000B7F809309AB22D4B9B8A9BB29A421BD185
:10752000B7F809309BB27A680092294A0192029317
:1075300028482949FA69294B0EF0C2FA3B7A1A46C3
:1075400007F10803043300922D4A01922548264989
:107550001A46264B0EF0B4FAB7F809309AB21B4B14
:107560001B8B9BB29A421BD1B7F809309BB27A6849
:107570000092174A0192029316481749FA69174B6D
:107580000EF09EFA3B7A1A4607F108030433009284
:107590001C4A0192134814491A46144B0EF090FAF3
:1075A0000023FB7610E2FA7E17491346DB001344F2
:1075B0005B0013440B4401331B78002B00D100E225
:1075C0000023BB76F9E100BF4FECC44E249D0020A0
:1075D0003C0A0200180A0200240A0200280A0200DB
:1075E000640A02004C0A0200540A02005C0A02000B
:1075F000780A02008C0A0200A40A0200BC0A0200F7
:10760000D40A0200EC0A0200A4980020B7F809305E
:1076100099B2FA7EBC7E9B4813465B001344DB00A4
:1076200023440A3330F823309BB2994224D1FA7EA6
:10763000BB7E79680091944901910292934A03922A
:107640000493934B059393489349FA69934B0EF037
:1076500037FAB7F809309BB21A463B7A194607F158
:10766000080304338E48009001918E4902918E48A0
:1076700011468E4A0EF024FAB7F8093099B2FA7E14
:10768000BC7E804813465B001344DB0023440C336C
:107690009B0003449B889BB2994224D1FA7EBB7E17
:1076A00079680091784901910292784A0392049393
:1076B000774B059377487849FA69784B0EF000FAD2
:1076C000B7F809309BB21A463B7A194607F108030E
:1076D0000433734800900191754902917248114634
:1076E000724A0EF0EDF9B7F8093099B2FA7EBC7E15
:1076F000644813465B001344DB002344103330F826
:1077000023309BB2994224D1FA7EBB7E79680091E6
:107710005D49019102925D4A039204935C4B05938B
:107720005C485D49FA695D4B0EF0CAF9B7F809305B
:107730009BB21A463B7A194607F1080304335848AE
:10774000009001915B49029157481146574A0EF04B
:10775000B7F9B7F8093099B2FA7EBC7E49481346AA
:107760005B001344DB00234412339B0003449B88DB
:107770009BB2994224D1FA7EBB7E7968009142493E
:1077800001910292414A03920493414B059341486F
:107790004149FA69414B0EF093F9B7F809309BB2B1
:1077A0001A463B7A194607F1080304333C48009017
:1077B0000191414902913C4811463C4A0EF080F942
:1077C000B7F8093099B2FA7EBC7E2E4813465B00AA
:1077D0001344DB002344163330F823309BB2994224
:1077E00024D1FA7EBB7E79680091274901910292EB
:1077F000264A03920493264B059326482649FA69A4
:10780000264B0EF05DF9B7F809309BB21A463B7A69
:10781000194607F1080304332148009001912749D4
:10782000029121481146214A0EF04AF9B7F8093071
:1078300099B2FA7EBC7E134813465B001344DB000A
:10784000234418339B0003449B889BB2994244D144
:10785000FA7EBB7E796800910B49019102920B4A36
:10786000039204930A4B05930A480B49FA690B4BA0
:107870000EF026F9B7F809309BB21A463B7A194642
:107880001EE000BF249D00200C0B020094FF0100AD
:10789000140B0200000B0200240A0200280A020056
:1078A000340B02003C0B02002C0B0200540A0200B5
:1078B000500B0200640B0200780B0200900B0200D8
:1078C00007F1080304334D48009001914C4902919F
:1078D0004C4811464C4A0EF0F3F8B7F8093099B20B
:1078E000FA7EBC7E494813465B001344DB00234408
:1078F0001C3330F823309BB2994224D1FA7EBB7EF0
:1079000079680091424901910292424A039204939C
:10791000414B059341484249FA69424B0EF0D0F879
:10792000B7F809309BB21A463B7A194607F10803AB
:1079300004333248009001913B490291314811468D
:10794000314A0EF0BDF8B7F8093099B2FA7EBC7E24
:107950002E4813465B001344DB0023441E339B0078
:1079600003449B889BB2994224D1FA7EBB7E7968FE
:107970000091274901910292264A03920493264BD3
:10798000059326482649FA69264B0EF099F8B7F870
:1079900009309BB21A463B7A194607F108030433B3
:1079A0001648009001912149029116481146164A45
:1079B0000EF086F8BB7E0133BB76BB7E022B7FF6D2
:1079C00025AEFB7E0133FB76FB7E022B7FF6EBAD13
:1079D000FB7A002B03D1164816490EF071F8FB7A9A
:1079E000012B03D1124814490EF06AF815F06EFF0E
:1079F000012318462437BD4690BD00BF340B02005A
:107A0000A40B02002C0B0200540A0200249D00204B
:107A10000C0B020094FF0100140B0200000B02008B
:107A2000240A0200280A0200BC0B0200D00B02004C
:107A3000E00B0200E40B0200EC0B020080B582B008
:107A400000AF15F0FBFE154815490EF039F800237C
:107A5000FB7116E0FB7918339B03184600F002F91E
:107A6000034683F00103DBB2002B07D0FB7901331F
:107A70000C480D491A460D4B0EF022F8FB790133E4
:107A8000FB71FB793B2BE5D9044809490EF018F846
:107A900015F01CFF0837BD4680BD00BF8003020003
:107AA000F40B0200B4090200B0070200340C02001B
:107AB0005C0C020090B595B00AAF0346FB80FB88D2
:107AC0003B8115F0BBFE07F1080318460CF042FAA3
:107AD000D7F80D30A3F5C0239B0BDBB2013387F839
:107AE0002730D7F80D30184600F0BCF8034683F075
:107AF0000103DBB2002B08D097F82730184819494A
:107B00001A46194B0DF0DCFF26E03B8997F8274019
:107B1000B7F8192092B21046B7F80B2092B211466E
:107B2000D7F80D200094114C019407F10804133488
:107B300002940F4C039404900E48059006910E4950
:107B4000079108920D4A09920D480E491A460E4BAC
:107B50000DF0B6FF15F0BAFE2C37BD4690BD00BF44
:107B60009C0C0200B0070200340C0200EC0C020076
:107B7000040D0200100D02001C0D0200280D020071
:107B8000A40C0200B80C0200DC0C020080B584B02A
:107B900002AF786015F052FE7B6893F805317A6881
:107BA00092F806210092204A0192204820491A4664
:107BB000204B0DF085FF204820490DF081FF7B68A8
:107BC0001B7F002B03D11E481E490DF079FF7B68F7
:107BD0001B7F012B03D11A481B490DF071FF7B68F5
:107BE0009B8A9BB219481A491A460DF069FF7B68B7
:107BF000DB8A9BB2154817491A460DF061FF7B6876
:107C00001B8B9BB2114814491A460DF059FF7B6833
:107C10005B8B9BB2114812491A460DF051FF15F0CB
:107C200055FE0837BD4680BD3C0D0200300D0200F8
:107C300084FF010094FF0100F0FF0100540D0200D9
:107C4000680D02006C0D0200780D0200840D020028
:107C5000880D02009C0D0200B00D0200C40D020050
:107C6000CC0D020090B5B9B006AF786015F0E6FD16
:107C700011F060FD0023C7F8C4301FE0D7F8C4300E
:107C8000952202FB03F27B681A4407F1AC0310460D
:107C900019460422002310F0EFFAD7F8AC30B3F104
:107CA000FF3F00D00EE0D7F8C4305F2B01D1002396
:107CB000DAE0D7F8C4300133C7F8C430D7F8C4309D
:107CC0005F2BDBD90023C7F8C0301EE0D7F8C030E7
:107CD000952202FB03F27B68134403F1080207F1CB
:107CE000AC03104619460422002310F0C5FAD7F859
:107CF000AC30B3F1FF3F0CD0D7F8AC30002B08D13B
:107D0000D7F8C0300133C7F8C030D7F8C0305F2B88
:107D1000DCD9D7F8AC3023F4604323F0FF031B0A0F
:107D2000C7F8A1307B68A3F5C0239B0B0133C7F8CC
:107D3000B030D7F8A13000934D4B01934D484E49D8
:107D4000D7F8B0204D4B0DF0BBFE0023C7F8BC3078
:107D500080E0D7F8BC30952202FB03F27B681A441E
:107D600007F10803104619469522002310F084FA03
:107D7000FB7AFF2B07D17B7A414842491A46424B96
:107D80000DF09EFE61E07B7AFA7A11463A7A07F1AD
:107D90000800053000903D48019002913C49039154
:107DA00004923C4A05923C4836491A463B4B0DF03A
:107DB00087FEFB7A1B2B28BF1B23DBB2FB72002341
:107DC000C7F8B83037E00023C7F8B4302AE0D7F856
:107DD000B820D7F8B4301A4413469B00134407F177
:107DE000C8021344B83BB3F805309BB21C46D7F821
:107DF000B820D7F8B4301A4413469B00134407F157
:107E0000C8021344B83BB3F807309BB20093244830
:107E100024492246244B0DF053FED7F8B4300133E9
:107E2000C7F8B430D7F8B430082BD0D9D7F8B83069
:107E30000933C7F8B830FB7A1A46D7F8B8309A42F7
:107E4000C1D81A481A490DF03BFED7F8BC300133AF
:107E5000C7F8BC30D7F8BC305F2B7FF67AAF11F093
:107E600069FC15F033FD01231846CC37BD4690BDA3
:107E7000E80E0200C80E0200D40E0200000E02003E
:107E8000F80E02002C0E0200440E0200780E0200D2
:107E9000840E0200900E0200600E02006C0E0200C2
:107EA000A00E0200A80E0200B40E0200680D02002F
:107EB000E805020080B582B000AF15F0BFFC234892
:107EC00023490DF0FDFD00237B6013E07A68134623
:107ED0005B0013449B0003F5B823184600F0F4F848
:107EE000034683F00103DBB2002B00D006E07B6881
:107EF00001337B607B68B3F5AA7FE7D91548164943
:107F00000DF0DEFD00233B6013E03A6813465B0092
:107F100013449B0003F5BA23184600F0D5F8034636
:107F200083F00103DBB2002B00D006E03B68013395
:107F30003B603B68B3F5AA7FE7D9064807490DF0D7
:107F4000BFFD15F0C3FC0837BD4680BD80030200AD
:107F5000000F0200540602003C0F0200700F0200E6
:107F600080B590B006AF15F069FC3B1D18460CF0CB
:107F70008DF9D7F80930A3F5B823B3F5805F09D29E
:107F8000D7F80930A3F5B822414BA3FB0213DB0855
:107F900001337B62D7F80930A3F5BA23B3F5805FCC
:107FA0000AD2D7F80930A3F5B822394BA3FB021344
:107FB000DB0803F5AB737B62364837490DF080FD73
:107FC000B7F815309BB2B7F8072092B20092334A47
:107FD00001923A1D13320292314A03927A6A049254
:107FE000304A0592304831491A46314B0DF068FD50
:107FF00000233B623BE0D7F80930184600F064F8F4
:10800000034683F00103DBB2002B28D0D7F80930F8
:10801000A3F5B823B3F5805F09D2D7F80930A3F5EB
:10802000B8221B4BA3FB0213DB0801337B62D7F89A
:108030000930A3F5BA23B3F5805F0AD2D7F8093027
:10804000A3F5B822124BA3FB0213DB0803F5AB73B5
:108050007B62184818497A6A184B0DF031FDD7F841
:1080600009300C33C7F809303B6A01333B62B7F87B
:1080700015309BB21A463B6A9A42BCD81048114947
:108080000DF01EFD15F022FC2837BD4680BD00BF57
:10809000ABAAAAAA80030200A40F02001C100200CF
:1080A0002C1002004810020044090200E40F0200F4
:1080B00008100200B4090200B007020054100200C8
:1080C000E00B02007810020080B58EB006AF786039
:1080D0007B68A3F5B823B3F5805F07D27B68C3F54F
:1080E000BA230B2B02D84FF4BA237B607B68A3F52D
:1080F000BA23B3F5805F07D27B68C3F5BC230B2B93
:1081000002D84FF4B8237B6007F10C037868194656
:108110000C22002310F0B0F8BB7BFF2B01D1002311
:1081200031E07B68A3F5B823B3F5805F08D27B68A4
:10813000A3F5B822164BA3FB0213DB080133FB6146
:108140007B68A3F5BA23B3F5805F09D27B68A3F5FA
:10815000BA220F4BA3FB0213DB0803F5AB73FB61E1
:10816000BB7B7A6800920B4A019207F10C02033242
:108170000292094A0392049308480949FA69094B93
:108180000DF09EFC012318462037BD4680BD00BF80
:10819000ABAAAAAAE410020060080200B010020014
:1081A000C0100200C810020080B582B000AF15F008
:1081B00045FB224822490DF083FC00237B6012E03E
:1081C0007A6813461B019B1A03F5BC23184600F07E
:1081D000F3F8034683F00103DBB2002B00D006E086
:1081E0007B6801337B607B68B3F5887FE8D91548ED
:1081F00015490DF065FC00233B6012E03A68134618
:108200001B019B1A03F5BE23184600F0D5F8034660
:1082100083F00103DBB2002B00D006E03B680133A2
:108220003B603B68B3F5887FE8D9064807490DF005
:1082300047FC15F04BFB0837BD4680BD80030200AC
:10824000F010020054060200281102005C11020026
:1082500080B590B006AF15F0F1FA3B1D18460CF052
:10826000C3F9D7F80930A3F5BC23B3F5805F09D271
:10827000D7F80930A3F5BC22414BA3FB0213DB085E
:1082800001337B62D7F80930A3F5BE23B3F5805FD5
:108290000AD2D7F80930A3F5BC22394BA3FB02134D
:1082A000DB0803F589737B62364837490DF008FC1B
:1082B000B7F815309BB2B7F8072092B20092334A54
:1082C00001923A1D13320292314A03927A6A049261
:1082D000304A0592304831491A46314B0DF0F0FBD7
:1082E00000233B623BE0D7F80930184600F064F801
:1082F000034683F00103DBB2002B28D0D7F8093006
:10830000A3F5BC23B3F5805F09D2D7F80930A3F5F4
:10831000BC221B4BA3FB0213DB0801337B62D7F8A3
:108320000930A3F5BE23B3F5805F0AD2D7F8093030
:10833000A3F5BC22124BA3FB0213DB0803F58973E0
:108340007B62184818497A6A184B0DF0B9FBD7F8C8
:1083500009300F33C7F809303B6A01333B62B7F885
:1083600015309BB21A463B6A9A42BCD81048114954
:108370000DF0A6FB15F0AAFA2837BD4680BD00BF58
:10838000898888888003020090110200FC11020095
:10839000081202002012020044090200CC1102005F
:1083A000EC110200A8070200B00702002812020028
:1083B000540602004812020080B594B00CAF7860F9
:1083C0007B68A3F5BC23B3F5805F07D27B68C3F558
:1083D000BE230E2B02D84FF4BE237B607B68A3F52F
:1083E000BE23B3F5805F07D27B68C3F5C0230E2B95
:1083F00002D84FF4BC237B6007F108037868194664
:108400000F2200230FF038FF3B7AFF2B01D100230E
:1084100044E07B68A3F5BC23B3F5805F08D27B689A
:10842000A3F5BC221F4BA3FB0213DB080133FB6146
:108430007B68A3F5BE23B3F5805F09D27B68A3F503
:10844000BE22184BA3FB0213DB0803F58973FB6103
:108450003B7A1946B7F809309BB21A46B7F80B3089
:108460009BB2786800901048019002910F490391E7
:1084700004920F4A059206930E4B079307F10803E7
:10848000063308930C4B09937B7B8DF828300B48FF
:108490000B49FA690B4B0DF013FB012318462037EB
:1084A000BD4680BD89888888AC120200B8120200DF
:1084B000C812020050080200600802008012020088
:1084C000C01002009412020080B582B000AF15F017
:1084D000B5F9174817490DF0F3FA00237B601BE04C
:1084E0007B680133144815491A46154B0DF0E8FA1C
:1084F0007A681346DB0013441B0303F5A8131846E0
:1085000000F098F8034683F00103DBB2002B00D0A3
:1085100005E07B6801337B607B687F2BE0D90948ED
:1085200009490DF0CDFA15F0D1F90837BD4680BDE7
:1085300080030200D8120200B4090200B007020052
:1085400014130200540602003013020090B595B0D7
:108550000AAF0346FB80FB883B8115F06FF907F1FA
:10856000080318460CF0E8F9D7F80D30A3F5A81267
:10857000244BA3FB02135B0BDBB2013387F82730DC
:10858000D7F80D30184600F055F8034683F0010384
:10859000DBB2002B09D097F827301B481B491A463D
:1085A0001B4B0DF08DFA002327E03B8997F82740FD
:1085B000B7F8192092B21046B7F80B2092B21146C4
:1085C000D7F80D200094134C019407F108041334DC
:1085D0000294114C039404901048059006911049A0
:1085E000079108920F4A09920F4810491A46104BFA
:1085F0000DF066FA15F06AF9012318462C37BD46CE
:1086000090BD00BF398EE3389C0C0200B007020019
:108610006C130200D4130200040D0200100D0200BE
:108620001C0D0200280D020098130200AC1302007A
:10863000DC0C0200B0B5AAB006AF786007F1880381
:1086400078681946022200230FF016FEB7F888203A
:108650004FF6FF739A4201D10023C1E07B680233D9
:108660007B6015F0EBF807F12403786819460722C0
:1086700000230FF001FE7B6807337B6007F12403C2
:1086800059485A491A460DF01BFA594859490DF0F4
:1086900017FAB7F88830584858491A460DF010FABA
:1086A00035E0B7F88830632B17D907F124037868D1
:1086B0001946642200230FF0DFFD07F1240318465A
:1086C00064210DF0C3FB7B6864337B60B7F88830AE
:1086D000643B9BB2A7F8883019E0B7F8883007F1FF
:1086E0002402786811461A4600230FF0C5FDB7F83A
:1086F000883007F12402104619460DF0A7FBB7F8A1
:1087000088307A6813447B600023A7F88830B7F874
:108710008830002BC5D13A483A490DF0D1F90023F1
:10872000C7F88C3050E007F10803786819461A2220
:1087300000230FF0A1FDBB68B3F1FF3F00D148E07B
:10874000BB68FA680092304A0192304830491A46B4
:10875000304B0DF0B5F93B8A1A467B8AB98A0C4634
:10876000F98A0846398B2C4D009501942A4C0294C5
:10877000039029480490059128481146264A0DF097
:108780009FF97B8BBA8B1046FA8B11463A8C00907E
:10879000214801900291204903910492204A0592B8
:1087A00020481D491A461C4B0DF08AF907F10803B1
:1087B00018461A210DF080FB7B681A337B60D7F8CE
:1087C0008C300133C7F88C30D7F88C30B3F5A46FF8
:1087D000A9D3154815490DF073F915F077F8012361
:1087E00018469037BD46B0BDEC130200F4130200EA
:1087F00010140200181402003C1402004414020079
:108800005406020068140200C4140200A8140200F6
:10881000B0140200B8140200D8140200CC140200F4
:10882000E8140200DC140200EC140200F41402004C
:10883000B0B590B00CAF00BF284B5A6847F6BC7378
:108840009A42F9D83B1D184606210FF0CDFF234B65
:108850005B68FB60FB684FF47A7202FB03F2204B0B
:10886000A3FB0213D21A520813449B0BFB601D4852
:108870001D490DF025F91D4B5B68FA6800921C4AF2
:1088800001921C481C491A461C4B0DF019F97B7AC1
:108890003A7A1546FA791446BA7910467A79114629
:1088A0003A790095164D01950294164C0394049064
:1088B0001548059006911449079108920F4A0992AC
:1088C000FA680A920A4A0B92104811491A460C4B50
:1088D0000DF0F6F81037BD46B0BD00BF00000840EF
:1088E000050002002C15020034150200586C01200E
:1088F000981502006C150200741502009415020010
:10890000E0150200D8140200E4150200AC150200C4
:10891000C015020080B582B000AF14F08FFF0E4882
:108920000E490DF0CDF80023FB7108E010F002FFB6
:10893000FB7918460FF092FDFB790133FB71FB794F
:10894000092BF3D9044806490DF0BAF814F0BEFF1C
:108950000837BD4680BD00BF54060200E81502007E
:108960001016020080B584B000AF786007F10803EC
:1089700018460DF0E5FD07F1080300201946FDF744
:10898000A5FC012318461037BD4680BD90B583B0C5
:1089900000AF786039603B6893F80831012B01D152
:1089A000002382E079E03B6893F80731002B39D14E
:1089B000786808F0EBFE0346032B01D8002374E02F
:1089C0003B6878681946012208F020FE3B681B7856
:1089D000682B00D061E07B685A683B680133786897
:1089E00011461A46032308F055FE3B681A783B6887
:1089F000DB789A4205D13B685A783B689B789A426B
:108A000000D04AE03B685B780F2B00D845E03B681C
:108A1000012283F807213B68013378681946032255
:108A200008F0F4FD786808F0B1FE02463B685B7818
:108A300002339A4201D2002337E03B68002283F8D8
:108A400007213B681A1D3B685B78786811461A4617
:108A500008F0DCFD3B6803F2031378681946022234
:108A600008F0D4FD3B6893F80431162B00D014E0D5
:108A70003B6893F803413B681A1D3B685B781046DE
:108A8000194600F017F803469C4200D005E03B6809
:108A9000012283F80821012307E0786808F076FEB8
:108AA0000346002B7FF47FAF002318460C37BD46EA
:108AB00090BD00BF80B485B000AF786039600023FE
:108AC000FB730023BB6009E07A68BB6813441A7823
:108AD000FB7B1344FB73BB680133BB60BA683B6824
